:100000000C9440000C944A000C944A000C944A0052
:100010000C944A000C944A000C944A000C944A0038
:100020000C944A000C944A000C944A000C944A0028
:100030000C944A000C944A000C944A000C944A0018
:100040000C944A000C944A000C944A000C944A0008
:100050000C944A000C944A000C944A000C944A00F8
:100060000C944A000C944A0020676F743A20000DEB
:100070000A7069636F55415254206563686F2000B0
:1000800011241FBECFEFD8E0DEBFCDBF0E945F00BE
:100090000C948D000C94000059983FB7F894519A35
:1000A00093E02BB144E14A95F1F700C080FB21F9C0
:1000B000969587952BB9B1F751983FBF08950FE6F4
:1000C00010E0F8018491811113C0489BFECF8FB7D7
:1000D000F8944899FECFFCE0FA95F1F7C0E895E175
:1000E0009A95F1F70000C6954899C068C0F705C019
:1000F0000F5F1F4F0E944C00E4CF8FBF08E610E057
:10010000F8018491811104C08C2F0E944C00D7CF3C
:0E0110000F5F1F4F0E944C00F3CFF894FFCFFB
:00000001FF
